{
	"Blockchain/Counter.sol": {
		"Counter": {
			"abi": [
				{
					"inputs": [],
					"stateMutability": "nonpayable",
					"type": "constructor"
				},
				{
					"inputs": [],
					"name": "count",
					"outputs": [
						{
							"internalType": "uint256",
							"name": "",
							"type": "uint256"
						}
					],
					"stateMutability": "view",
					"type": "function"
				},
				{
					"inputs": [],
					"name": "decrement",
					"outputs": [],
					"stateMutability": "nonpayable",
					"type": "function"
				},
				{
					"inputs": [],
					"name": "increment",
					"outputs": [],
					"stateMutability": "nonpayable",
					"type": "function"
				},
				{
					"inputs": [],
					"name": "owner",
					"outputs": [
						{
							"internalType": "address",
							"name": "",
							"type": "address"
						}
					],
					"stateMutability": "view",
					"type": "function"
				},
				{
					"inputs": [],
					"name": "reset",
					"outputs": [],
					"stateMutability": "nonpayable",
					"type": "function"
				}
			],
			"devdoc": {
				"kind": "dev",
				"methods": {},
				"version": 1
			},
			"evm": {
				"assembly": "    /* \"Blockchain/Counter.sol\":60:728  contract Counter {... */\n  mstore(0x40, 0x80)\n    /* \"Blockchain/Counter.sol\":167:299  constructor() {... */\n  callvalue\n  dup1\n  iszero\n  tag_1\n  jumpi\n  revert(0x00, 0x00)\ntag_1:\n  pop\n    /* \"Blockchain/Counter.sol\":200:210  msg.sender */\n  caller\n    /* \"Blockchain/Counter.sol\":192:197  owner */\n  0x01\n  0x00\n    /* \"Blockchain/Counter.sol\":192:210  owner = msg.sender */\n  0x0100\n  exp\n  dup2\n  sload\n  dup2\n  0xffffffffffffffffffffffffffffffffffffffff\n  mul\n  not\n  and\n  swap1\n  dup4\n  0xffffffffffffffffffffffffffffffffffffffff\n  and\n  mul\n  or\n  swap1\n  sstore\n  pop\n    /* \"Blockchain/Counter.sol\":259:260  0 */\n  0x00\n    /* \"Blockchain/Counter.sol\":251:256  count */\n  0x00\n    /* \"Blockchain/Counter.sol\":251:260  count = 0 */\n  dup2\n  swap1\n  sstore\n  pop\n    /* \"Blockchain/Counter.sol\":60:728  contract Counter {... */\n  dataSize(sub_0)\n  dup1\n  dataOffset(sub_0)\n  0x00\n  codecopy\n  0x00\n  return\nstop\n\nsub_0: assembly {\n        /* \"Blockchain/Counter.sol\":60:728  contract Counter {... */\n      mstore(0x40, 0x80)\n      callvalue\n      dup1\n      iszero\n      tag_1\n      jumpi\n      revert(0x00, 0x00)\n    tag_1:\n      pop\n      jumpi(tag_2, lt(calldatasize, 0x04))\n      shr(0xe0, calldataload(0x00))\n      dup1\n      0x06661abd\n      eq\n      tag_3\n      jumpi\n      dup1\n      0x2baeceb7\n      eq\n      tag_4\n      jumpi\n      dup1\n      0x8da5cb5b\n      eq\n      tag_5\n      jumpi\n      dup1\n      0xd09de08a\n      eq\n      tag_6\n      jumpi\n      dup1\n      0xd826f88f\n      eq\n      tag_7\n      jumpi\n    tag_2:\n      revert(0x00, 0x00)\n        /* \"Blockchain/Counter.sol\":84:101  uint public count */\n    tag_3:\n      tag_8\n      tag_9\n      jump\t// in\n    tag_8:\n      mload(0x40)\n      tag_10\n      swap2\n      swap1\n      tag_11\n      jump\t// in\n    tag_10:\n      mload(0x40)\n      dup1\n      swap2\n      sub\n      swap1\n      return\n        /* \"Blockchain/Counter.sol\":434:552  function decrement() public {... */\n    tag_4:\n      tag_12\n      tag_13\n      jump\t// in\n    tag_12:\n      stop\n        /* \"Blockchain/Counter.sol\":138:158  address public owner */\n    tag_5:\n      tag_14\n      tag_15\n      jump\t// in\n    tag_14:\n      mload(0x40)\n      tag_16\n      swap2\n      swap1\n      tag_17\n      jump\t// in\n    tag_16:\n      mload(0x40)\n      dup1\n      swap2\n      sub\n      swap1\n      return\n        /* \"Blockchain/Counter.sol\":338:395  function increment() public {... */\n    tag_6:\n      tag_18\n      tag_19\n      jump\t// in\n    tag_18:\n      stop\n        /* \"Blockchain/Counter.sol\":610:725  function reset() public {... */\n    tag_7:\n      tag_20\n      tag_21\n      jump\t// in\n    tag_20:\n      stop\n        /* \"Blockchain/Counter.sol\":84:101  uint public count */\n    tag_9:\n      sload(0x00)\n      dup2\n      jump\t// out\n        /* \"Blockchain/Counter.sol\":434:552  function decrement() public {... */\n    tag_13:\n        /* \"Blockchain/Counter.sol\":489:490  0 */\n      0x00\n        /* \"Blockchain/Counter.sol\":481:486  count */\n      sload(0x00)\n        /* \"Blockchain/Counter.sol\":481:490  count > 0 */\n      gt\n        /* \"Blockchain/Counter.sol\":473:523  require(count > 0, \"Counter cannot go below zero\") */\n      tag_23\n      jumpi\n      mload(0x40)\n      0x08c379a000000000000000000000000000000000000000000000000000000000\n      dup2\n      mstore\n      0x04\n      add\n      tag_24\n      swap1\n      tag_25\n      jump\t// in\n    tag_24:\n      mload(0x40)\n      dup1\n      swap2\n      sub\n      swap1\n      revert\n    tag_23:\n        /* \"Blockchain/Counter.sol\":543:544  1 */\n      0x01\n        /* \"Blockchain/Counter.sol\":534:539  count */\n      0x00\n      0x00\n        /* \"Blockchain/Counter.sol\":534:544  count -= 1 */\n      dup3\n      dup3\n      sload\n      tag_26\n      swap2\n      swap1\n      tag_27\n      jump\t// in\n    tag_26:\n      swap3\n      pop\n      pop\n      dup2\n      swap1\n      sstore\n      pop\n        /* \"Blockchain/Counter.sol\":434:552  function decrement() public {... */\n      jump\t// out\n        /* \"Blockchain/Counter.sol\":138:158  address public owner */\n    tag_15:\n      0x01\n      0x00\n      swap1\n      sload\n      swap1\n      0x0100\n      exp\n      swap1\n      div\n      0xffffffffffffffffffffffffffffffffffffffff\n      and\n      dup2\n      jump\t// out\n        /* \"Blockchain/Counter.sol\":338:395  function increment() public {... */\n    tag_19:\n        /* \"Blockchain/Counter.sol\":386:387  1 */\n      0x01\n        /* \"Blockchain/Counter.sol\":377:382  count */\n      0x00\n      0x00\n        /* \"Blockchain/Counter.sol\":377:387  count += 1 */\n      dup3\n      dup3\n      sload\n      tag_29\n      swap2\n      swap1\n      tag_30\n      jump\t// in\n    tag_29:\n      swap3\n      pop\n      pop\n      dup2\n      swap1\n      sstore\n      pop\n        /* \"Blockchain/Counter.sol\":338:395  function increment() public {... */\n      jump\t// out\n        /* \"Blockchain/Counter.sol\":610:725  function reset() public {... */\n    tag_21:\n        /* \"Blockchain/Counter.sol\":667:672  owner */\n      0x01\n      0x00\n      swap1\n      sload\n      swap1\n      0x0100\n      exp\n      swap1\n      div\n      0xffffffffffffffffffffffffffffffffffffffff\n      and\n        /* \"Blockchain/Counter.sol\":653:672  msg.sender == owner */\n      0xffffffffffffffffffffffffffffffffffffffff\n      and\n        /* \"Blockchain/Counter.sol\":653:663  msg.sender */\n      caller\n        /* \"Blockchain/Counter.sol\":653:672  msg.sender == owner */\n      0xffffffffffffffffffffffffffffffffffffffff\n      and\n      eq\n        /* \"Blockchain/Counter.sol\":645:697  require(msg.sender == owner, \"Only owner can reset\") */\n      tag_32\n      jumpi\n      mload(0x40)\n      0x08c379a000000000000000000000000000000000000000000000000000000000\n      dup2\n      mstore\n      0x04\n      add\n      tag_33\n      swap1\n      tag_34\n      jump\t// in\n    tag_33:\n      mload(0x40)\n      dup1\n      swap2\n      sub\n      swap1\n      revert\n    tag_32:\n        /* \"Blockchain/Counter.sol\":716:717  0 */\n      0x00\n        /* \"Blockchain/Counter.sol\":708:713  count */\n      0x00\n        /* \"Blockchain/Counter.sol\":708:717  count = 0 */\n      dup2\n      swap1\n      sstore\n      pop\n        /* \"Blockchain/Counter.sol\":610:725  function reset() public {... */\n      jump\t// out\n        /* \"#utility.yul\":7:84   */\n    tag_35:\n        /* \"#utility.yul\":44:51   */\n      0x00\n        /* \"#utility.yul\":73:78   */\n      dup2\n        /* \"#utility.yul\":62:78   */\n      swap1\n      pop\n        /* \"#utility.yul\":7:84   */\n      swap2\n      swap1\n      pop\n      jump\t// out\n        /* \"#utility.yul\":90:208   */\n    tag_36:\n        /* \"#utility.yul\":177:201   */\n      tag_49\n        /* \"#utility.yul\":195:200   */\n      dup2\n        /* \"#utility.yul\":177:201   */\n      tag_35\n      jump\t// in\n    tag_49:\n        /* \"#utility.yul\":172:175   */\n      dup3\n        /* \"#utility.yul\":165:202   */\n      mstore\n        /* \"#utility.yul\":90:208   */\n      pop\n      pop\n      jump\t// out\n        /* \"#utility.yul\":214:436   */\n    tag_11:\n        /* \"#utility.yul\":307:311   */\n      0x00\n        /* \"#utility.yul\":345:347   */\n      0x20\n        /* \"#utility.yul\":334:343   */\n      dup3\n        /* \"#utility.yul\":330:348   */\n      add\n        /* \"#utility.yul\":322:348   */\n      swap1\n      pop\n        /* \"#utility.yul\":358:429   */\n      tag_51\n        /* \"#utility.yul\":426:427   */\n      0x00\n        /* \"#utility.yul\":415:424   */\n      dup4\n        /* \"#utility.yul\":411:428   */\n      add\n        /* \"#utility.yul\":402:408   */\n      dup5\n        /* \"#utility.yul\":358:429   */\n      tag_36\n      jump\t// in\n    tag_51:\n        /* \"#utility.yul\":214:436   */\n      swap3\n      swap2\n      pop\n      pop\n      jump\t// out\n        /* \"#utility.yul\":442:568   */\n    tag_37:\n        /* \"#utility.yul\":479:486   */\n      0x00\n        /* \"#utility.yul\":519:561   */\n      0xffffffffffffffffffffffffffffffffffffffff\n        /* \"#utility.yul\":512:517   */\n      dup3\n        /* \"#utility.yul\":508:562   */\n      and\n        /* \"#utility.yul\":497:562   */\n      swap1\n      pop\n        /* \"#utility.yul\":442:568   */\n      swap2\n      swap1\n      pop\n      jump\t// out\n        /* \"#utility.yul\":574:670   */\n    tag_38:\n        /* \"#utility.yul\":611:618   */\n      0x00\n        /* \"#utility.yul\":640:664   */\n      tag_54\n        /* \"#utility.yul\":658:663   */\n      dup3\n        /* \"#utility.yul\":640:664   */\n      tag_37\n      jump\t// in\n    tag_54:\n        /* \"#utility.yul\":629:664   */\n      swap1\n      pop\n        /* \"#utility.yul\":574:670   */\n      swap2\n      swap1\n      pop\n      jump\t// out\n        /* \"#utility.yul\":676:794   */\n    tag_39:\n        /* \"#utility.yul\":763:787   */\n      tag_56\n        /* \"#utility.yul\":781:786   */\n      dup2\n        /* \"#utility.yul\":763:787   */\n      tag_38\n      jump\t// in\n    tag_56:\n        /* \"#utility.yul\":758:761   */\n      dup3\n        /* \"#utility.yul\":751:788   */\n      mstore\n        /* \"#utility.yul\":676:794   */\n      pop\n      pop\n      jump\t// out\n        /* \"#utility.yul\":800:1022   */\n    tag_17:\n        /* \"#utility.yul\":893:897   */\n      0x00\n        /* \"#utility.yul\":931:933   */\n      0x20\n        /* \"#utility.yul\":920:929   */\n      dup3\n        /* \"#utility.yul\":916:934   */\n      add\n        /* \"#utility.yul\":908:934   */\n      swap1\n      pop\n        /* \"#utility.yul\":944:1015   */\n      tag_58\n        /* \"#utility.yul\":1012:1013   */\n      0x00\n        /* \"#utility.yul\":1001:1010   */\n      dup4\n        /* \"#utility.yul\":997:1014   */\n      add\n        /* \"#utility.yul\":988:994   */\n      dup5\n        /* \"#utility.yul\":944:1015   */\n      tag_39\n      jump\t// in\n    tag_58:\n        /* \"#utility.yul\":800:1022   */\n      swap3\n      swap2\n      pop\n      pop\n      jump\t// out\n        /* \"#utility.yul\":1028:1197   */\n    tag_40:\n        /* \"#utility.yul\":1112:1123   */\n      0x00\n        /* \"#utility.yul\":1146:1152   */\n      dup3\n        /* \"#utility.yul\":1141:1144   */\n      dup3\n        /* \"#utility.yul\":1134:1153   */\n      mstore\n        /* \"#utility.yul\":1186:1190   */\n      0x20\n        /* \"#utility.yul\":1181:1184   */\n      dup3\n        /* \"#utility.yul\":1177:1191   */\n      add\n        /* \"#utility.yul\":1162:1191   */\n      swap1\n      pop\n        /* \"#utility.yul\":1028:1197   */\n      swap3\n      swap2\n      pop\n      pop\n      jump\t// out\n        /* \"#utility.yul\":1203:1381   */\n    tag_41:\n        /* \"#utility.yul\":1343:1373   */\n      0x436f756e7465722063616e6e6f7420676f2062656c6f77207a65726f00000000\n        /* \"#utility.yul\":1339:1340   */\n      0x00\n        /* \"#utility.yul\":1331:1337   */\n      dup3\n        /* \"#utility.yul\":1327:1341   */\n      add\n        /* \"#utility.yul\":1320:1374   */\n      mstore\n        /* \"#utility.yul\":1203:1381   */\n      pop\n      jump\t// out\n        /* \"#utility.yul\":1387:1753   */\n    tag_42:\n        /* \"#utility.yul\":1529:1532   */\n      0x00\n        /* \"#utility.yul\":1550:1617   */\n      tag_62\n        /* \"#utility.yul\":1614:1616   */\n      0x1c\n        /* \"#utility.yul\":1609:1612   */\n      dup4\n        /* \"#utility.yul\":1550:1617   */\n      tag_40\n      jump\t// in\n    tag_62:\n        /* \"#utility.yul\":1543:1617   */\n      swap2\n      pop\n        /* \"#utility.yul\":1626:1719   */\n      tag_63\n        /* \"#utility.yul\":1715:1718   */\n      dup3\n        /* \"#utility.yul\":1626:1719   */\n      tag_41\n      jump\t// in\n    tag_63:\n        /* \"#utility.yul\":1744:1746   */\n      0x20\n        /* \"#utility.yul\":1739:1742   */\n      dup3\n        /* \"#utility.yul\":1735:1747   */\n      add\n        /* \"#utility.yul\":1728:1747   */\n      swap1\n      pop\n        /* \"#utility.yul\":1387:1753   */\n      swap2\n      swap1\n      pop\n      jump\t// out\n        /* \"#utility.yul\":1759:2178   */\n    tag_25:\n        /* \"#utility.yul\":1925:1929   */\n      0x00\n        /* \"#utility.yul\":1963:1965   */\n      0x20\n        /* \"#utility.yul\":1952:1961   */\n      dup3\n        /* \"#utility.yul\":1948:1966   */\n      add\n        /* \"#utility.yul\":1940:1966   */\n      swap1\n      pop\n        /* \"#utility.yul\":2012:2021   */\n      dup2\n        /* \"#utility.yul\":2006:2010   */\n      dup2\n        /* \"#utility.yul\":2002:2022   */\n      sub\n        /* \"#utility.yul\":1998:1999   */\n      0x00\n        /* \"#utility.yul\":1987:1996   */\n      dup4\n        /* \"#utility.yul\":1983:2000   */\n      add\n        /* \"#utility.yul\":1976:2023   */\n      mstore\n        /* \"#utility.yul\":2040:2171   */\n      tag_65\n        /* \"#utility.yul\":2166:2170   */\n      dup2\n        /* \"#utility.yul\":2040:2171   */\n      tag_42\n      jump\t// in\n    tag_65:\n        /* \"#utility.yul\":2032:2171   */\n      swap1\n      pop\n        /* \"#utility.yul\":1759:2178   */\n      swap2\n      swap1\n      pop\n      jump\t// out\n        /* \"#utility.yul\":2184:2364   */\n    tag_43:\n        /* \"#utility.yul\":2232:2309   */\n      0x4e487b7100000000000000000000000000000000000000000000000000000000\n        /* \"#utility.yul\":2229:2230   */\n      0x00\n        /* \"#utility.yul\":2222:2310   */\n      mstore\n        /* \"#utility.yul\":2329:2333   */\n      0x11\n        /* \"#utility.yul\":2326:2327   */\n      0x04\n        /* \"#utility.yul\":2319:2334   */\n      mstore\n        /* \"#utility.yul\":2353:2357   */\n      0x24\n        /* \"#utility.yul\":2350:2351   */\n      0x00\n        /* \"#utility.yul\":2343:2358   */\n      revert\n        /* \"#utility.yul\":2370:2564   */\n    tag_27:\n        /* \"#utility.yul\":2410:2414   */\n      0x00\n        /* \"#utility.yul\":2430:2450   */\n      tag_68\n        /* \"#utility.yul\":2448:2449   */\n      dup3\n        /* \"#utility.yul\":2430:2450   */\n      tag_35\n      jump\t// in\n    tag_68:\n        /* \"#utility.yul\":2425:2450   */\n      swap2\n      pop\n        /* \"#utility.yul\":2464:2484   */\n      tag_69\n        /* \"#utility.yul\":2482:2483   */\n      dup4\n        /* \"#utility.yul\":2464:2484   */\n      tag_35\n      jump\t// in\n    tag_69:\n        /* \"#utility.yul\":2459:2484   */\n      swap3\n      pop\n        /* \"#utility.yul\":2508:2509   */\n      dup3\n        /* \"#utility.yul\":2505:2506   */\n      dup3\n        /* \"#utility.yul\":2501:2510   */\n      sub\n        /* \"#utility.yul\":2493:2510   */\n      swap1\n      pop\n        /* \"#utility.yul\":2532:2533   */\n      dup2\n        /* \"#utility.yul\":2526:2530   */\n      dup2\n        /* \"#utility.yul\":2523:2534   */\n      gt\n        /* \"#utility.yul\":2520:2557   */\n      iszero\n      tag_70\n      jumpi\n        /* \"#utility.yul\":2537:2555   */\n      tag_71\n      tag_43\n      jump\t// in\n    tag_71:\n        /* \"#utility.yul\":2520:2557   */\n    tag_70:\n        /* \"#utility.yul\":2370:2564   */\n      swap3\n      swap2\n      pop\n      pop\n      jump\t// out\n        /* \"#utility.yul\":2570:2761   */\n    tag_30:\n        /* \"#utility.yul\":2610:2613   */\n      0x00\n        /* \"#utility.yul\":2629:2649   */\n      tag_73\n        /* \"#utility.yul\":2647:2648   */\n      dup3\n        /* \"#utility.yul\":2629:2649   */\n      tag_35\n      jump\t// in\n    tag_73:\n        /* \"#utility.yul\":2624:2649   */\n      swap2\n      pop\n        /* \"#utility.yul\":2663:2683   */\n      tag_74\n        /* \"#utility.yul\":2681:2682   */\n      dup4\n        /* \"#utility.yul\":2663:2683   */\n      tag_35\n      jump\t// in\n    tag_74:\n        /* \"#utility.yul\":2658:2683   */\n      swap3\n      pop\n        /* \"#utility.yul\":2706:2707   */\n      dup3\n        /* \"#utility.yul\":2703:2704   */\n      dup3\n        /* \"#utility.yul\":2699:2708   */\n      add\n        /* \"#utility.yul\":2692:2708   */\n      swap1\n      pop\n        /* \"#utility.yul\":2727:2730   */\n      dup1\n        /* \"#utility.yul\":2724:2725   */\n      dup3\n        /* \"#utility.yul\":2721:2731   */\n      gt\n        /* \"#utility.yul\":2718:2754   */\n      iszero\n      tag_75\n      jumpi\n        /* \"#utility.yul\":2734:2752   */\n      tag_76\n      tag_43\n      jump\t// in\n    tag_76:\n        /* \"#utility.yul\":2718:2754   */\n    tag_75:\n        /* \"#utility.yul\":2570:2761   */\n      swap3\n      swap2\n      pop\n      pop\n      jump\t// out\n        /* \"#utility.yul\":2767:2937   */\n    tag_44:\n        /* \"#utility.yul\":2907:2929   */\n      0x4f6e6c79206f776e65722063616e207265736574000000000000000000000000\n        /* \"#utility.yul\":2903:2904   */\n      0x00\n        /* \"#utility.yul\":2895:2901   */\n      dup3\n        /* \"#utility.yul\":2891:2905   */\n      add\n        /* \"#utility.yul\":2884:2930   */\n      mstore\n        /* \"#utility.yul\":2767:2937   */\n      pop\n      jump\t// out\n        /* \"#utility.yul\":2943:3309   */\n    tag_45:\n        /* \"#utility.yul\":3085:3088   */\n      0x00\n        /* \"#utility.yul\":3106:3173   */\n      tag_79\n        /* \"#utility.yul\":3170:3172   */\n      0x14\n        /* \"#utility.yul\":3165:3168   */\n      dup4\n        /* \"#utility.yul\":3106:3173   */\n      tag_40\n      jump\t// in\n    tag_79:\n        /* \"#utility.yul\":3099:3173   */\n      swap2\n      pop\n        /* \"#utility.yul\":3182:3275   */\n      tag_80\n        /* \"#utility.yul\":3271:3274   */\n      dup3\n        /* \"#utility.yul\":3182:3275   */\n      tag_44\n      jump\t// in\n    tag_80:\n        /* \"#utility.yul\":3300:3302   */\n      0x20\n        /* \"#utility.yul\":3295:3298   */\n      dup3\n        /* \"#utility.yul\":3291:3303   */\n      add\n        /* \"#utility.yul\":3284:3303   */\n      swap1\n      pop\n        /* \"#utility.yul\":2943:3309   */\n      swap2\n      swap1\n      pop\n      jump\t// out\n        /* \"#utility.yul\":3315:3734   */\n    tag_34:\n        /* \"#utility.yul\":3481:3485   */\n      0x00\n        /* \"#utility.yul\":3519:3521   */\n      0x20\n        /* \"#utility.yul\":3508:3517   */\n      dup3\n        /* \"#utility.yul\":3504:3522   */\n      add\n        /* \"#utility.yul\":3496:3522   */\n      swap1\n      pop\n        /* \"#utility.yul\":3568:3577   */\n      dup2\n        /* \"#utility.yul\":3562:3566   */\n      dup2\n        /* \"#utility.yul\":3558:3578   */\n      sub\n        /* \"#utility.yul\":3554:3555   */\n      0x00\n        /* \"#utility.yul\":3543:3552   */\n      dup4\n        /* \"#utility.yul\":3539:3556   */\n      add\n        /* \"#utility.yul\":3532:3579   */\n      mstore\n        /* \"#utility.yul\":3596:3727   */\n      tag_82\n        /* \"#utility.yul\":3722:3726   */\n      dup2\n        /* \"#utility.yul\":3596:3727   */\n      tag_45\n      jump\t// in\n    tag_82:\n        /* \"#utility.yul\":3588:3727   */\n      swap1\n      pop\n        /* \"#utility.yul\":3315:3734   */\n      swap2\n      swap1\n      pop\n      jump\t// out\n\n    auxdata: 0xa26469706673582212205361dce961409d55be072aeba25d0135848d76f5cdef2bc8087969d342b6f0d764736f6c634300081e0033\n}\n",
				"bytecode": {
					"linkReferences": {},
					"object": "6080604052348015600e575f5ffd5b503360015f6101000a81548173ffffffffffffffffffffffffffffffffffffffff021916908373ffffffffffffffffffffffffffffffffffffffff1602179055505f5f8190555061041d806100625f395ff3fe608060405234801561000f575f5ffd5b5060043610610055575f3560e01c806306661abd146100595780632baeceb7146100775780638da5cb5b14610081578063d09de08a1461009f578063d826f88f146100a9575b5f5ffd5b6100616100b3565b60405161006e9190610203565b60405180910390f35b61007f6100b8565b005b610089610115565b604051610096919061025b565b60405180910390f35b6100a761013a565b005b6100b1610154565b005b5f5481565b5f5f54116100fb576040517f08c379a00000000000000000000000000000000000000000000000000000000081526004016100f2906102ce565b60405180910390fd5b60015f5f82825461010c9190610319565b92505081905550565b60015f9054906101000a900473ffffffffffffffffffffffffffffffffffffffff1681565b60015f5f82825461014b919061034c565b92505081905550565b60015f9054906101000a900473ffffffffffffffffffffffffffffffffffffffff1673ffffffffffffffffffffffffffffffffffffffff163373ffffffffffffffffffffffffffffffffffffffff16146101e3576040517f08c379a00000000000000000000000000000000000000000000000000000000081526004016101da906103c9565b60405180910390fd5b5f5f81905550565b5f819050919050565b6101fd816101eb565b82525050565b5f6020820190506102165f8301846101f4565b92915050565b5f73ffffffffffffffffffffffffffffffffffffffff82169050919050565b5f6102458261021c565b9050919050565b6102558161023b565b82525050565b5f60208201905061026e5f83018461024c565b92915050565b5f82825260208201905092915050565b7f436f756e7465722063616e6e6f7420676f2062656c6f77207a65726f000000005f82015250565b5f6102b8601c83610274565b91506102c382610284565b602082019050919050565b5f6020820190508181035f8301526102e5816102ac565b9050919050565b7f4e487b71000000000000000000000000000000000000000000000000000000005f52601160045260245ffd5b5f610323826101eb565b915061032e836101eb565b9250828203905081811115610346576103456102ec565b5b92915050565b5f610356826101eb565b9150610361836101eb565b9250828201905080821115610379576103786102ec565b5b92915050565b7f4f6e6c79206f776e65722063616e2072657365740000000000000000000000005f82015250565b5f6103b3601483610274565b91506103be8261037f565b602082019050919050565b5f6020820190508181035f8301526103e0816103a7565b905091905056fea26469706673582212205361dce961409d55be072aeba25d0135848d76f5cdef2bc8087969d342b6f0d764736f6c634300081e0033",
					"opcodes": "PUSH1 0x80 PUSH1 0x40 MSTORE CALLVALUE DUP1 ISZERO PUSH1 0xE JUMPI PUSH0 PUSH0 REVERT JUMPDEST POP CALLER PUSH1 0x1 PUSH0 PUSH2 0x100 EXP DUP2 SLOAD DUP2 PUSH20 0xFFFFFFFFFFFFFFFFFFFFFFFFFFFFFFFFFFFFFFFF MUL NOT AND SWAP1 DUP4 PUSH20 0xFFFFFFFFFFFFFFFFFFFFFFFFFFFFFFFFFFFFFFFF AND MUL OR SWAP1 SSTORE POP PUSH0 PUSH0 DUP2 SWAP1 SSTORE POP PUSH2 0x41D DUP1 PUSH2 0x62 PUSH0 CODECOPY PUSH0 RETURN INVALID PUSH1 0x80 PUSH1 0x40 MSTORE CALLVALUE DUP1 ISZERO PUSH2 0xF JUMPI PUSH0 PUSH0 REVERT JUMPDEST POP PUSH1 0x4 CALLDATASIZE LT PUSH2 0x55 JUMPI PUSH0 CALLDATALOAD PUSH1 0xE0 SHR DUP1 PUSH4 0x6661ABD EQ PUSH2 0x59 JUMPI DUP1 PUSH4 0x2BAECEB7 EQ PUSH2 0x77 JUMPI DUP1 PUSH4 0x8DA5CB5B EQ PUSH2 0x81 JUMPI DUP1 PUSH4 0xD09DE08A EQ PUSH2 0x9F JUMPI DUP1 PUSH4 0xD826F88F EQ PUSH2 0xA9 JUMPI JUMPDEST PUSH0 PUSH0 REVERT JUMPDEST PUSH2 0x61 PUSH2 0xB3 JUMP JUMPDEST PUSH1 0x40 MLOAD PUSH2 0x6E SWAP2 SWAP1 PUSH2 0x203 JUMP JUMPDEST PUSH1 0x40 MLOAD DUP1 SWAP2 SUB SWAP1 RETURN JUMPDEST PUSH2 0x7F PUSH2 0xB8 JUMP JUMPDEST STOP JUMPDEST PUSH2 0x89 PUSH2 0x115 JUMP JUMPDEST PUSH1 0x40 MLOAD PUSH2 0x96 SWAP2 SWAP1 PUSH2 0x25B JUMP JUMPDEST PUSH1 0x40 MLOAD DUP1 SWAP2 SUB SWAP1 RETURN JUMPDEST PUSH2 0xA7 PUSH2 0x13A JUMP JUMPDEST STOP JUMPDEST PUSH2 0xB1 PUSH2 0x154 JUMP JUMPDEST STOP JUMPDEST PUSH0 SLOAD DUP2 JUMP JUMPDEST PUSH0 PUSH0 SLOAD GT PUSH2 0xFB JUMPI PUSH1 0x40 MLOAD PUSH32 0x8C379A000000000000000000000000000000000000000000000000000000000 DUP2 MSTORE PUSH1 0x4 ADD PUSH2 0xF2 SWAP1 PUSH2 0x2CE JUMP JUMPDEST PUSH1 0x40 MLOAD DUP1 SWAP2 SUB SWAP1 REVERT JUMPDEST PUSH1 0x1 PUSH0 PUSH0 DUP3 DUP3 SLOAD PUSH2 0x10C SWAP2 SWAP1 PUSH2 0x319 JUMP JUMPDEST SWAP3 POP POP DUP2 SWAP1 SSTORE POP JUMP JUMPDEST PUSH1 0x1 PUSH0 SWAP1 SLOAD SWAP1 PUSH2 0x100 EXP SWAP1 DIV PUSH20 0xFFFFFFFFFFFFFFFFFFFFFFFFFFFFFFFFFFFFFFFF AND DUP2 JUMP JUMPDEST PUSH1 0x1 PUSH0 PUSH0 DUP3 DUP3 SLOAD PUSH2 0x14B SWAP2 SWAP1 PUSH2 0x34C JUMP JUMPDEST SWAP3 POP POP DUP2 SWAP1 SSTORE POP JUMP JUMPDEST PUSH1 0x1 PUSH0 SWAP1 SLOAD SWAP1 PUSH2 0x100 EXP SWAP1 DIV PUSH20 0xFFFFFFFFFFFFFFFFFFFFFFFFFFFFFFFFFFFFFFFF AND PUSH20 0xFFFFFFFFFFFFFFFFFFFFFFFFFFFFFFFFFFFFFFFF AND CALLER PUSH20 0xFFFFFFFFFFFFFFFFFFFFFFFFFFFFFFFFFFFFFFFF AND EQ PUSH2 0x1E3 JUMPI PUSH1 0x40 MLOAD PUSH32 0x8C379A000000000000000000000000000000000000000000000000000000000 DUP2 MSTORE PUSH1 0x4 ADD PUSH2 0x1DA SWAP1 PUSH2 0x3C9 JUMP JUMPDEST PUSH1 0x40 MLOAD DUP1 SWAP2 SUB SWAP1 REVERT JUMPDEST PUSH0 PUSH0 DUP2 SWAP1 SSTORE POP JUMP JUMPDEST PUSH0 DUP2 SWAP1 POP SWAP2 SWAP1 POP JUMP JUMPDEST PUSH2 0x1FD DUP2 PUSH2 0x1EB JUMP JUMPDEST DUP3 MSTORE POP POP JUMP JUMPDEST PUSH0 PUSH1 0x20 DUP3 ADD SWAP1 POP PUSH2 0x216 PUSH0 DUP4 ADD DUP5 PUSH2 0x1F4 JUMP JUMPDEST SWAP3 SWAP2 POP POP JUMP JUMPDEST PUSH0 PUSH20 0xFFFFFFFFFFFFFFFFFFFFFFFFFFFFFFFFFFFFFFFF DUP3 AND SWAP1 POP SWAP2 SWAP1 POP JUMP JUMPDEST PUSH0 PUSH2 0x245 DUP3 PUSH2 0x21C JUMP JUMPDEST SWAP1 POP SWAP2 SWAP1 POP JUMP JUMPDEST PUSH2 0x255 DUP2 PUSH2 0x23B JUMP JUMPDEST DUP3 MSTORE POP POP JUMP JUMPDEST PUSH0 PUSH1 0x20 DUP3 ADD SWAP1 POP PUSH2 0x26E PUSH0 DUP4 ADD DUP5 PUSH2 0x24C JUMP JUMPDEST SWAP3 SWAP2 POP POP JUMP JUMPDEST PUSH0 DUP3 DUP3 MSTORE PUSH1 0x20 DUP3 ADD SWAP1 POP SWAP3 SWAP2 POP POP JUMP JUMPDEST PUSH32 0x436F756E7465722063616E6E6F7420676F2062656C6F77207A65726F00000000 PUSH0 DUP3 ADD MSTORE POP JUMP JUMPDEST PUSH0 PUSH2 0x2B8 PUSH1 0x1C DUP4 PUSH2 0x274 JUMP JUMPDEST SWAP2 POP PUSH2 0x2C3 DUP3 PUSH2 0x284 JUMP JUMPDEST PUSH1 0x20 DUP3 ADD SWAP1 POP SWAP2 SWAP1 POP JUMP JUMPDEST PUSH0 PUSH1 0x20 DUP3 ADD SWAP1 POP DUP2 DUP2 SUB PUSH0 DUP4 ADD MSTORE PUSH2 0x2E5 DUP2 PUSH2 0x2AC JUMP JUMPDEST SWAP1 POP SWAP2 SWAP1 POP JUMP JUMPDEST PUSH32 0x4E487B7100000000000000000000000000000000000000000000000000000000 PUSH0 MSTORE PUSH1 0x11 PUSH1 0x4 MSTORE PUSH1 0x24 PUSH0 REVERT JUMPDEST PUSH0 PUSH2 0x323 DUP3 PUSH2 0x1EB JUMP JUMPDEST SWAP2 POP PUSH2 0x32E DUP4 PUSH2 0x1EB JUMP JUMPDEST SWAP3 POP DUP3 DUP3 SUB SWAP1 POP DUP2 DUP2 GT ISZERO PUSH2 0x346 JUMPI PUSH2 0x345 PUSH2 0x2EC JUMP JUMPDEST JUMPDEST SWAP3 SWAP2 POP POP JUMP JUMPDEST PUSH0 PUSH2 0x356 DUP3 PUSH2 0x1EB JUMP JUMPDEST SWAP2 POP PUSH2 0x361 DUP4 PUSH2 0x1EB JUMP JUMPDEST SWAP3 POP DUP3 DUP3 ADD SWAP1 POP DUP1 DUP3 GT ISZERO PUSH2 0x379 JUMPI PUSH2 0x378 PUSH2 0x2EC JUMP JUMPDEST JUMPDEST SWAP3 SWAP2 POP POP JUMP JUMPDEST PUSH32 0x4F6E6C79206F776E65722063616E207265736574000000000000000000000000 PUSH0 DUP3 ADD MSTORE POP JUMP JUMPDEST PUSH0 PUSH2 0x3B3 PUSH1 0x14 DUP4 PUSH2 0x274 JUMP JUMPDEST SWAP2 POP PUSH2 0x3BE DUP3 PUSH2 0x37F JUMP JUMPDEST PUSH1 0x20 DUP3 ADD SWAP1 POP SWAP2 SWAP1 POP JUMP JUMPDEST PUSH0 PUSH1 0x20 DUP3 ADD SWAP1 POP DUP2 DUP2 SUB PUSH0 DUP4 ADD MSTORE PUSH2 0x3E0 DUP2 PUSH2 0x3A7 JUMP JUMPDEST SWAP1 POP SWAP2 SWAP1 POP JUMP INVALID LOG2 PUSH5 0x6970667358 0x22 SLT KECCAK256 MSTORE8 PUSH2 0xDCE9 PUSH2 0x409D SSTORE 0xBE SMOD 0x2A 0xEB LOG2 TSTORE ADD CALLDATALOAD DUP5 DUP14 PUSH23 0xF5CDEF2BC8087969D342B6F0D764736F6C634300081E00 CALLER "
				},
				"gasEstimates": {
					"creation": {
						"codeDepositCost": "210600",
						"executionCost": "29526",
						"totalCost": "240126"
					},
					"external": {
						"count()": "2402",
						"decrement()": "infinite",
						"increment()": "infinite",
						"owner()": "2530",
						"reset()": "7390"
					}
				},
				"methodIdentifiers": {
					"count()": "06661abd",
					"decrement()": "2baeceb7",
					"increment()": "d09de08a",
					"owner()": "8da5cb5b",
					"reset()": "d826f88f"
				}
			},
			"storageLayout": {
				"storage": [
					{
						"astId": 3,
						"contract": "Blockchain/Counter.sol:Counter",
						"label": "count",
						"offset": 0,
						"slot": "0",
						"type": "t_uint256"
					},
					{
						"astId": 5,
						"contract": "Blockchain/Counter.sol:Counter",
						"label": "owner",
						"offset": 0,
						"slot": "1",
						"type": "t_address"
					}
				],
				"types": {
					"t_address": {
						"encoding": "inplace",
						"label": "address",
						"numberOfBytes": "20"
					},
					"t_uint256": {
						"encoding": "inplace",
						"label": "uint256",
						"numberOfBytes": "32"
					}
				}
			},
			"userdoc": {
				"kind": "user",
				"methods": {
					"decrement()": {
						"notice": "decrement the counter"
					},
					"increment()": {
						"notice": "increment the counter"
					},
					"reset()": {
						"notice": "reset the counter (only owner can reset)"
					}
				},
				"version": 1
			}
		}
	}
}