{
	"Blockchain/event.sol": {
		"EventCounter": {
			"abi": [
				{
					"inputs": [],
					"stateMutability": "nonpayable",
					"type": "constructor"
				},
				{
					"anonymous": false,
					"inputs": [
						{
							"indexed": true,
							"internalType": "address",
							"name": "by",
							"type": "address"
						},
						{
							"indexed": false,
							"internalType": "uint256",
							"name": "newCount",
							"type": "uint256"
						}
					],
					"name": "Decrement",
					"type": "event"
				},
				{
					"anonymous": false,
					"inputs": [
						{
							"indexed": true,
							"internalType": "address",
							"name": "by",
							"type": "address"
						},
						{
							"indexed": false,
							"internalType": "uint256",
							"name": "newCount",
							"type": "uint256"
						}
					],
					"name": "Increment",
					"type": "event"
				},
				{
					"anonymous": false,
					"inputs": [
						{
							"indexed": true,
							"internalType": "address",
							"name": "by",
							"type": "address"
						},
						{
							"indexed": false,
							"internalType": "uint256",
							"name": "newCount",
							"type": "uint256"
						}
					],
					"name": "Reset",
					"type": "event"
				},
				{
					"inputs": [],
					"name": "count",
					"outputs": [
						{
							"internalType": "uint256",
							"name": "",
							"type": "uint256"
						}
					],
					"stateMutability": "view",
					"type": "function"
				},
				{
					"inputs": [],
					"name": "decrement",
					"outputs": [],
					"stateMutability": "nonpayable",
					"type": "function"
				},
				{
					"inputs": [],
					"name": "increment",
					"outputs": [],
					"stateMutability": "nonpayable",
					"type": "function"
				},
				{
					"inputs": [],
					"name": "owner",
					"outputs": [
						{
							"internalType": "address",
							"name": "",
							"type": "address"
						}
					],
					"stateMutability": "view",
					"type": "function"
				},
				{
					"inputs": [],
					"name": "reset",
					"outputs": [],
					"stateMutability": "nonpayable",
					"type": "function"
				}
			],
			"devdoc": {
				"kind": "dev",
				"methods": {},
				"version": 1
			},
			"evm": {
				"assembly": "    /* \"Blockchain/event.sol\":60:971  contract EventCounter {... */\n  mstore(0x40, 0x80)\n    /* \"Blockchain/event.sol\":326:397  constructor() {... */\n  callvalue\n  dup1\n  iszero\n  tag_1\n  jumpi\n  revert(0x00, 0x00)\ntag_1:\n  pop\n    /* \"Blockchain/event.sol\":359:369  msg.sender */\n  caller\n    /* \"Blockchain/event.sol\":351:356  owner */\n  0x01\n  0x00\n    /* \"Blockchain/event.sol\":351:369  owner = msg.sender */\n  0x0100\n  exp\n  dup2\n  sload\n  dup2\n  0xffffffffffffffffffffffffffffffffffffffff\n  mul\n  not\n  and\n  swap1\n  dup4\n  0xffffffffffffffffffffffffffffffffffffffff\n  and\n  mul\n  or\n  swap1\n  sstore\n  pop\n    /* \"Blockchain/event.sol\":388:389  0 */\n  0x00\n    /* \"Blockchain/event.sol\":380:385  count */\n  0x00\n    /* \"Blockchain/event.sol\":380:389  count = 0 */\n  dup2\n  swap1\n  sstore\n  pop\n    /* \"Blockchain/event.sol\":60:971  contract EventCounter {... */\n  dataSize(sub_0)\n  dup1\n  dataOffset(sub_0)\n  0x00\n  codecopy\n  0x00\n  return\nstop\n\nsub_0: assembly {\n        /* \"Blockchain/event.sol\":60:971  contract EventCounter {... */\n      mstore(0x40, 0x80)\n      callvalue\n      dup1\n      iszero\n      tag_1\n      jumpi\n      revert(0x00, 0x00)\n    tag_1:\n      pop\n      jumpi(tag_2, lt(calldatasize, 0x04))\n      shr(0xe0, calldataload(0x00))\n      dup1\n      0x06661abd\n      eq\n      tag_3\n      jumpi\n      dup1\n      0x2baeceb7\n      eq\n      tag_4\n      jumpi\n      dup1\n      0x8da5cb5b\n      eq\n      tag_5\n      jumpi\n      dup1\n      0xd09de08a\n      eq\n      tag_6\n      jumpi\n      dup1\n      0xd826f88f\n      eq\n      tag_7\n      jumpi\n    tag_2:\n      revert(0x00, 0x00)\n        /* \"Blockchain/event.sol\":89:106  uint public count */\n    tag_3:\n      tag_8\n      tag_9\n      jump\t// in\n    tag_8:\n      mload(0x40)\n      tag_10\n      swap2\n      swap1\n      tag_11\n      jump\t// in\n    tag_10:\n      mload(0x40)\n      dup1\n      swap2\n      sub\n      swap1\n      return\n        /* \"Blockchain/event.sol\":581:756  function decrement() public {... */\n    tag_4:\n      tag_12\n      tag_13\n      jump\t// in\n    tag_12:\n      stop\n        /* \"Blockchain/event.sol\":113:133  address public owner */\n    tag_5:\n      tag_14\n      tag_15\n      jump\t// in\n    tag_14:\n      mload(0x40)\n      tag_16\n      swap2\n      swap1\n      tag_17\n      jump\t// in\n    tag_16:\n      mload(0x40)\n      dup1\n      swap2\n      sub\n      swap1\n      return\n        /* \"Blockchain/event.sol\":432:546  function increment() public {... */\n    tag_6:\n      tag_18\n      tag_19\n      jump\t// in\n    tag_18:\n      stop\n        /* \"Blockchain/event.sol\":800:968  function reset() public {... */\n    tag_7:\n      tag_20\n      tag_21\n      jump\t// in\n    tag_20:\n      stop\n        /* \"Blockchain/event.sol\":89:106  uint public count */\n    tag_9:\n      sload(0x00)\n      dup2\n      jump\t// out\n        /* \"Blockchain/event.sol\":581:756  function decrement() public {... */\n    tag_13:\n        /* \"Blockchain/event.sol\":636:637  0 */\n      0x00\n        /* \"Blockchain/event.sol\":628:633  count */\n      sload(0x00)\n        /* \"Blockchain/event.sol\":628:637  count > 0 */\n      gt\n        /* \"Blockchain/event.sol\":620:670  require(count > 0, \"Counter cannot go below zero\") */\n      tag_23\n      jumpi\n      mload(0x40)\n      0x08c379a000000000000000000000000000000000000000000000000000000000\n      dup2\n      mstore\n      0x04\n      add\n      tag_24\n      swap1\n      tag_25\n      jump\t// in\n    tag_24:\n      mload(0x40)\n      dup1\n      swap2\n      sub\n      swap1\n      revert\n    tag_23:\n        /* \"Blockchain/event.sol\":690:691  1 */\n      0x01\n        /* \"Blockchain/event.sol\":681:686  count */\n      0x00\n      0x00\n        /* \"Blockchain/event.sol\":681:691  count -= 1 */\n      dup3\n      dup3\n      sload\n      tag_26\n      swap2\n      swap1\n      tag_27\n      jump\t// in\n    tag_26:\n      swap3\n      pop\n      pop\n      dup2\n      swap1\n      sstore\n      pop\n        /* \"Blockchain/event.sol\":717:727  msg.sender */\n      caller\n        /* \"Blockchain/event.sol\":707:735  Decrement(msg.sender, count) */\n      0xffffffffffffffffffffffffffffffffffffffff\n      and\n      0x6b7e3c491cf1853ed43c9cc473d0dbfa8a17d1c836321655f35b48cf00faee03\n        /* \"Blockchain/event.sol\":729:734  count */\n      sload(0x00)\n        /* \"Blockchain/event.sol\":707:735  Decrement(msg.sender, count) */\n      mload(0x40)\n      tag_28\n      swap2\n      swap1\n      tag_11\n      jump\t// in\n    tag_28:\n      mload(0x40)\n      dup1\n      swap2\n      sub\n      swap1\n      log2\n        /* \"Blockchain/event.sol\":581:756  function decrement() public {... */\n      jump\t// out\n        /* \"Blockchain/event.sol\":113:133  address public owner */\n    tag_15:\n      0x01\n      0x00\n      swap1\n      sload\n      swap1\n      0x0100\n      exp\n      swap1\n      div\n      0xffffffffffffffffffffffffffffffffffffffff\n      and\n      dup2\n      jump\t// out\n        /* \"Blockchain/event.sol\":432:546  function increment() public {... */\n    tag_19:\n        /* \"Blockchain/event.sol\":480:481  1 */\n      0x01\n        /* \"Blockchain/event.sol\":471:476  count */\n      0x00\n      0x00\n        /* \"Blockchain/event.sol\":471:481  count += 1 */\n      dup3\n      dup3\n      sload\n      tag_30\n      swap2\n      swap1\n      tag_31\n      jump\t// in\n    tag_30:\n      swap3\n      pop\n      pop\n      dup2\n      swap1\n      sstore\n      pop\n        /* \"Blockchain/event.sol\":507:517  msg.sender */\n      caller\n        /* \"Blockchain/event.sol\":497:525  Increment(msg.sender, count) */\n      0xffffffffffffffffffffffffffffffffffffffff\n      and\n      0xb182275171042022ff972a26edbd0171bccc74463bd22e56dbbeba4e93b7a668\n        /* \"Blockchain/event.sol\":519:524  count */\n      sload(0x00)\n        /* \"Blockchain/event.sol\":497:525  Increment(msg.sender, count) */\n      mload(0x40)\n      tag_32\n      swap2\n      swap1\n      tag_11\n      jump\t// in\n    tag_32:\n      mload(0x40)\n      dup1\n      swap2\n      sub\n      swap1\n      log2\n        /* \"Blockchain/event.sol\":432:546  function increment() public {... */\n      jump\t// out\n        /* \"Blockchain/event.sol\":800:968  function reset() public {... */\n    tag_21:\n        /* \"Blockchain/event.sol\":857:862  owner */\n      0x01\n      0x00\n      swap1\n      sload\n      swap1\n      0x0100\n      exp\n      swap1\n      div\n      0xffffffffffffffffffffffffffffffffffffffff\n      and\n        /* \"Blockchain/event.sol\":843:862  msg.sender == owner */\n      0xffffffffffffffffffffffffffffffffffffffff\n      and\n        /* \"Blockchain/event.sol\":843:853  msg.sender */\n      caller\n        /* \"Blockchain/event.sol\":843:862  msg.sender == owner */\n      0xffffffffffffffffffffffffffffffffffffffff\n      and\n      eq\n        /* \"Blockchain/event.sol\":835:887  require(msg.sender == owner, \"Only owner can reset\") */\n      tag_34\n      jumpi\n      mload(0x40)\n      0x08c379a000000000000000000000000000000000000000000000000000000000\n      dup2\n      mstore\n      0x04\n      add\n      tag_35\n      swap1\n      tag_36\n      jump\t// in\n    tag_35:\n      mload(0x40)\n      dup1\n      swap2\n      sub\n      swap1\n      revert\n    tag_34:\n        /* \"Blockchain/event.sol\":906:907  0 */\n      0x00\n        /* \"Blockchain/event.sol\":898:903  count */\n      0x00\n        /* \"Blockchain/event.sol\":898:907  count = 0 */\n      dup2\n      swap1\n      sstore\n      pop\n        /* \"Blockchain/event.sol\":929:939  msg.sender */\n      caller\n        /* \"Blockchain/event.sol\":923:947  Reset(msg.sender, count) */\n      0xffffffffffffffffffffffffffffffffffffffff\n      and\n      0x154fa90f2d3692df165afacdcd7755b2e9d98a892a80cc1dda63f3a9cc1e64a4\n        /* \"Blockchain/event.sol\":941:946  count */\n      sload(0x00)\n        /* \"Blockchain/event.sol\":923:947  Reset(msg.sender, count) */\n      mload(0x40)\n      tag_37\n      swap2\n      swap1\n      tag_11\n      jump\t// in\n    tag_37:\n      mload(0x40)\n      dup1\n      swap2\n      sub\n      swap1\n      log2\n        /* \"Blockchain/event.sol\":800:968  function reset() public {... */\n      jump\t// out\n        /* \"#utility.yul\":7:84   */\n    tag_38:\n        /* \"#utility.yul\":44:51   */\n      0x00\n        /* \"#utility.yul\":73:78   */\n      dup2\n        /* \"#utility.yul\":62:78   */\n      swap1\n      pop\n        /* \"#utility.yul\":7:84   */\n      swap2\n      swap1\n      pop\n      jump\t// out\n        /* \"#utility.yul\":90:208   */\n    tag_39:\n        /* \"#utility.yul\":177:201   */\n      tag_52\n        /* \"#utility.yul\":195:200   */\n      dup2\n        /* \"#utility.yul\":177:201   */\n      tag_38\n      jump\t// in\n    tag_52:\n        /* \"#utility.yul\":172:175   */\n      dup3\n        /* \"#utility.yul\":165:202   */\n      mstore\n        /* \"#utility.yul\":90:208   */\n      pop\n      pop\n      jump\t// out\n        /* \"#utility.yul\":214:436   */\n    tag_11:\n        /* \"#utility.yul\":307:311   */\n      0x00\n        /* \"#utility.yul\":345:347   */\n      0x20\n        /* \"#utility.yul\":334:343   */\n      dup3\n        /* \"#utility.yul\":330:348   */\n      add\n        /* \"#utility.yul\":322:348   */\n      swap1\n      pop\n        /* \"#utility.yul\":358:429   */\n      tag_54\n        /* \"#utility.yul\":426:427   */\n      0x00\n        /* \"#utility.yul\":415:424   */\n      dup4\n        /* \"#utility.yul\":411:428   */\n      add\n        /* \"#utility.yul\":402:408   */\n      dup5\n        /* \"#utility.yul\":358:429   */\n      tag_39\n      jump\t// in\n    tag_54:\n        /* \"#utility.yul\":214:436   */\n      swap3\n      swap2\n      pop\n      pop\n      jump\t// out\n        /* \"#utility.yul\":442:568   */\n    tag_40:\n        /* \"#utility.yul\":479:486   */\n      0x00\n        /* \"#utility.yul\":519:561   */\n      0xffffffffffffffffffffffffffffffffffffffff\n        /* \"#utility.yul\":512:517   */\n      dup3\n        /* \"#utility.yul\":508:562   */\n      and\n        /* \"#utility.yul\":497:562   */\n      swap1\n      pop\n        /* \"#utility.yul\":442:568   */\n      swap2\n      swap1\n      pop\n      jump\t// out\n        /* \"#utility.yul\":574:670   */\n    tag_41:\n        /* \"#utility.yul\":611:618   */\n      0x00\n        /* \"#utility.yul\":640:664   */\n      tag_57\n        /* \"#utility.yul\":658:663   */\n      dup3\n        /* \"#utility.yul\":640:664   */\n      tag_40\n      jump\t// in\n    tag_57:\n        /* \"#utility.yul\":629:664   */\n      swap1\n      pop\n        /* \"#utility.yul\":574:670   */\n      swap2\n      swap1\n      pop\n      jump\t// out\n        /* \"#utility.yul\":676:794   */\n    tag_42:\n        /* \"#utility.yul\":763:787   */\n      tag_59\n        /* \"#utility.yul\":781:786   */\n      dup2\n        /* \"#utility.yul\":763:787   */\n      tag_41\n      jump\t// in\n    tag_59:\n        /* \"#utility.yul\":758:761   */\n      dup3\n        /* \"#utility.yul\":751:788   */\n      mstore\n        /* \"#utility.yul\":676:794   */\n      pop\n      pop\n      jump\t// out\n        /* \"#utility.yul\":800:1022   */\n    tag_17:\n        /* \"#utility.yul\":893:897   */\n      0x00\n        /* \"#utility.yul\":931:933   */\n      0x20\n        /* \"#utility.yul\":920:929   */\n      dup3\n        /* \"#utility.yul\":916:934   */\n      add\n        /* \"#utility.yul\":908:934   */\n      swap1\n      pop\n        /* \"#utility.yul\":944:1015   */\n      tag_61\n        /* \"#utility.yul\":1012:1013   */\n      0x00\n        /* \"#utility.yul\":1001:1010   */\n      dup4\n        /* \"#utility.yul\":997:1014   */\n      add\n        /* \"#utility.yul\":988:994   */\n      dup5\n        /* \"#utility.yul\":944:1015   */\n      tag_42\n      jump\t// in\n    tag_61:\n        /* \"#utility.yul\":800:1022   */\n      swap3\n      swap2\n      pop\n      pop\n      jump\t// out\n        /* \"#utility.yul\":1028:1197   */\n    tag_43:\n        /* \"#utility.yul\":1112:1123   */\n      0x00\n        /* \"#utility.yul\":1146:1152   */\n      dup3\n        /* \"#utility.yul\":1141:1144   */\n      dup3\n        /* \"#utility.yul\":1134:1153   */\n      mstore\n        /* \"#utility.yul\":1186:1190   */\n      0x20\n        /* \"#utility.yul\":1181:1184   */\n      dup3\n        /* \"#utility.yul\":1177:1191   */\n      add\n        /* \"#utility.yul\":1162:1191   */\n      swap1\n      pop\n        /* \"#utility.yul\":1028:1197   */\n      swap3\n      swap2\n      pop\n      pop\n      jump\t// out\n        /* \"#utility.yul\":1203:1381   */\n    tag_44:\n        /* \"#utility.yul\":1343:1373   */\n      0x436f756e7465722063616e6e6f7420676f2062656c6f77207a65726f00000000\n        /* \"#utility.yul\":1339:1340   */\n      0x00\n        /* \"#utility.yul\":1331:1337   */\n      dup3\n        /* \"#utility.yul\":1327:1341   */\n      add\n        /* \"#utility.yul\":1320:1374   */\n      mstore\n        /* \"#utility.yul\":1203:1381   */\n      pop\n      jump\t// out\n        /* \"#utility.yul\":1387:1753   */\n    tag_45:\n        /* \"#utility.yul\":1529:1532   */\n      0x00\n        /* \"#utility.yul\":1550:1617   */\n      tag_65\n        /* \"#utility.yul\":1614:1616   */\n      0x1c\n        /* \"#utility.yul\":1609:1612   */\n      dup4\n        /* \"#utility.yul\":1550:1617   */\n      tag_43\n      jump\t// in\n    tag_65:\n        /* \"#utility.yul\":1543:1617   */\n      swap2\n      pop\n        /* \"#utility.yul\":1626:1719   */\n      tag_66\n        /* \"#utility.yul\":1715:1718   */\n      dup3\n        /* \"#utility.yul\":1626:1719   */\n      tag_44\n      jump\t// in\n    tag_66:\n        /* \"#utility.yul\":1744:1746   */\n      0x20\n        /* \"#utility.yul\":1739:1742   */\n      dup3\n        /* \"#utility.yul\":1735:1747   */\n      add\n        /* \"#utility.yul\":1728:1747   */\n      swap1\n      pop\n        /* \"#utility.yul\":1387:1753   */\n      swap2\n      swap1\n      pop\n      jump\t// out\n        /* \"#utility.yul\":1759:2178   */\n    tag_25:\n        /* \"#utility.yul\":1925:1929   */\n      0x00\n        /* \"#utility.yul\":1963:1965   */\n      0x20\n        /* \"#utility.yul\":1952:1961   */\n      dup3\n        /* \"#utility.yul\":1948:1966   */\n      add\n        /* \"#utility.yul\":1940:1966   */\n      swap1\n      pop\n        /* \"#utility.yul\":2012:2021   */\n      dup2\n        /* \"#utility.yul\":2006:2010   */\n      dup2\n        /* \"#utility.yul\":2002:2022   */\n      sub\n        /* \"#utility.yul\":1998:1999   */\n      0x00\n        /* \"#utility.yul\":1987:1996   */\n      dup4\n        /* \"#utility.yul\":1983:2000   */\n      add\n        /* \"#utility.yul\":1976:2023   */\n      mstore\n        /* \"#utility.yul\":2040:2171   */\n      tag_68\n        /* \"#utility.yul\":2166:2170   */\n      dup2\n        /* \"#utility.yul\":2040:2171   */\n      tag_45\n      jump\t// in\n    tag_68:\n        /* \"#utility.yul\":2032:2171   */\n      swap1\n      pop\n        /* \"#utility.yul\":1759:2178   */\n      swap2\n      swap1\n      pop\n      jump\t// out\n        /* \"#utility.yul\":2184:2364   */\n    tag_46:\n        /* \"#utility.yul\":2232:2309   */\n      0x4e487b7100000000000000000000000000000000000000000000000000000000\n        /* \"#utility.yul\":2229:2230   */\n      0x00\n        /* \"#utility.yul\":2222:2310   */\n      mstore\n        /* \"#utility.yul\":2329:2333   */\n      0x11\n        /* \"#utility.yul\":2326:2327   */\n      0x04\n        /* \"#utility.yul\":2319:2334   */\n      mstore\n        /* \"#utility.yul\":2353:2357   */\n      0x24\n        /* \"#utility.yul\":2350:2351   */\n      0x00\n        /* \"#utility.yul\":2343:2358   */\n      revert\n        /* \"#utility.yul\":2370:2564   */\n    tag_27:\n        /* \"#utility.yul\":2410:2414   */\n      0x00\n        /* \"#utility.yul\":2430:2450   */\n      tag_71\n        /* \"#utility.yul\":2448:2449   */\n      dup3\n        /* \"#utility.yul\":2430:2450   */\n      tag_38\n      jump\t// in\n    tag_71:\n        /* \"#utility.yul\":2425:2450   */\n      swap2\n      pop\n        /* \"#utility.yul\":2464:2484   */\n      tag_72\n        /* \"#utility.yul\":2482:2483   */\n      dup4\n        /* \"#utility.yul\":2464:2484   */\n      tag_38\n      jump\t// in\n    tag_72:\n        /* \"#utility.yul\":2459:2484   */\n      swap3\n      pop\n        /* \"#utility.yul\":2508:2509   */\n      dup3\n        /* \"#utility.yul\":2505:2506   */\n      dup3\n        /* \"#utility.yul\":2501:2510   */\n      sub\n        /* \"#utility.yul\":2493:2510   */\n      swap1\n      pop\n        /* \"#utility.yul\":2532:2533   */\n      dup2\n        /* \"#utility.yul\":2526:2530   */\n      dup2\n        /* \"#utility.yul\":2523:2534   */\n      gt\n        /* \"#utility.yul\":2520:2557   */\n      iszero\n      tag_73\n      jumpi\n        /* \"#utility.yul\":2537:2555   */\n      tag_74\n      tag_46\n      jump\t// in\n    tag_74:\n        /* \"#utility.yul\":2520:2557   */\n    tag_73:\n        /* \"#utility.yul\":2370:2564   */\n      swap3\n      swap2\n      pop\n      pop\n      jump\t// out\n        /* \"#utility.yul\":2570:2761   */\n    tag_31:\n        /* \"#utility.yul\":2610:2613   */\n      0x00\n        /* \"#utility.yul\":2629:2649   */\n      tag_76\n        /* \"#utility.yul\":2647:2648   */\n      dup3\n        /* \"#utility.yul\":2629:2649   */\n      tag_38\n      jump\t// in\n    tag_76:\n        /* \"#utility.yul\":2624:2649   */\n      swap2\n      pop\n        /* \"#utility.yul\":2663:2683   */\n      tag_77\n        /* \"#utility.yul\":2681:2682   */\n      dup4\n        /* \"#utility.yul\":2663:2683   */\n      tag_38\n      jump\t// in\n    tag_77:\n        /* \"#utility.yul\":2658:2683   */\n      swap3\n      pop\n        /* \"#utility.yul\":2706:2707   */\n      dup3\n        /* \"#utility.yul\":2703:2704   */\n      dup3\n        /* \"#utility.yul\":2699:2708   */\n      add\n        /* \"#utility.yul\":2692:2708   */\n      swap1\n      pop\n        /* \"#utility.yul\":2727:2730   */\n      dup1\n        /* \"#utility.yul\":2724:2725   */\n      dup3\n        /* \"#utility.yul\":2721:2731   */\n      gt\n        /* \"#utility.yul\":2718:2754   */\n      iszero\n      tag_78\n      jumpi\n        /* \"#utility.yul\":2734:2752   */\n      tag_79\n      tag_46\n      jump\t// in\n    tag_79:\n        /* \"#utility.yul\":2718:2754   */\n    tag_78:\n        /* \"#utility.yul\":2570:2761   */\n      swap3\n      swap2\n      pop\n      pop\n      jump\t// out\n        /* \"#utility.yul\":2767:2937   */\n    tag_47:\n        /* \"#utility.yul\":2907:2929   */\n      0x4f6e6c79206f776e65722063616e207265736574000000000000000000000000\n        /* \"#utility.yul\":2903:2904   */\n      0x00\n        /* \"#utility.yul\":2895:2901   */\n      dup3\n        /* \"#utility.yul\":2891:2905   */\n      add\n        /* \"#utility.yul\":2884:2930   */\n      mstore\n        /* \"#utility.yul\":2767:2937   */\n      pop\n      jump\t// out\n        /* \"#utility.yul\":2943:3309   */\n    tag_48:\n        /* \"#utility.yul\":3085:3088   */\n      0x00\n        /* \"#utility.yul\":3106:3173   */\n      tag_82\n        /* \"#utility.yul\":3170:3172   */\n      0x14\n        /* \"#utility.yul\":3165:3168   */\n      dup4\n        /* \"#utility.yul\":3106:3173   */\n      tag_43\n      jump\t// in\n    tag_82:\n        /* \"#utility.yul\":3099:3173   */\n      swap2\n      pop\n        /* \"#utility.yul\":3182:3275   */\n      tag_83\n        /* \"#utility.yul\":3271:3274   */\n      dup3\n        /* \"#utility.yul\":3182:3275   */\n      tag_47\n      jump\t// in\n    tag_83:\n        /* \"#utility.yul\":3300:3302   */\n      0x20\n        /* \"#utility.yul\":3295:3298   */\n      dup3\n        /* \"#utility.yul\":3291:3303   */\n      add\n        /* \"#utility.yul\":3284:3303   */\n      swap1\n      pop\n        /* \"#utility.yul\":2943:3309   */\n      swap2\n      swap1\n      pop\n      jump\t// out\n        /* \"#utility.yul\":3315:3734   */\n    tag_36:\n        /* \"#utility.yul\":3481:3485   */\n      0x00\n        /* \"#utility.yul\":3519:3521   */\n      0x20\n        /* \"#utility.yul\":3508:3517   */\n      dup3\n        /* \"#utility.yul\":3504:3522   */\n      add\n        /* \"#utility.yul\":3496:3522   */\n      swap1\n      pop\n        /* \"#utility.yul\":3568:3577   */\n      dup2\n        /* \"#utility.yul\":3562:3566   */\n      dup2\n        /* \"#utility.yul\":3558:3578   */\n      sub\n        /* \"#utility.yul\":3554:3555   */\n      0x00\n        /* \"#utility.yul\":3543:3552   */\n      dup4\n        /* \"#utility.yul\":3539:3556   */\n      add\n        /* \"#utility.yul\":3532:3579   */\n      mstore\n        /* \"#utility.yul\":3596:3727   */\n      tag_85\n        /* \"#utility.yul\":3722:3726   */\n      dup2\n        /* \"#utility.yul\":3596:3727   */\n      tag_48\n      jump\t// in\n    tag_85:\n        /* \"#utility.yul\":3588:3727   */\n      swap1\n      pop\n        /* \"#utility.yul\":3315:3734   */\n      swap2\n      swap1\n      pop\n      jump\t// out\n\n    auxdata: 0xa2646970667358221220e9c9e98ff79d0efceae4b3b1534cb0625e22a61a6f1232c7470dab5683ab8f4764736f6c634300081e0033\n}\n",
				"bytecode": {
					"linkReferences": {},
					"object": "6080604052348015600e575f5ffd5b503360015f6101000a81548173ffffffffffffffffffffffffffffffffffffffff021916908373ffffffffffffffffffffffffffffffffffffffff1602179055505f5f8190555061050a806100625f395ff3fe608060405234801561000f575f5ffd5b5060043610610055575f3560e01c806306661abd146100595780632baeceb7146100775780638da5cb5b14610081578063d09de08a1461009f578063d826f88f146100a9575b5f5ffd5b6100616100b3565b60405161006e91906102f0565b60405180910390f35b61007f6100b8565b005b610089610164565b6040516100969190610348565b60405180910390f35b6100a7610189565b005b6100b16101f2565b005b5f5481565b5f5f54116100fb576040517f08c379a00000000000000000000000000000000000000000000000000000000081526004016100f2906103bb565b60405180910390fd5b60015f5f82825461010c9190610406565b925050819055503373ffffffffffffffffffffffffffffffffffffffff167f6b7e3c491cf1853ed43c9cc473d0dbfa8a17d1c836321655f35b48cf00faee035f5460405161015a91906102f0565b60405180910390a2565b60015f9054906101000a900473ffffffffffffffffffffffffffffffffffffffff1681565b60015f5f82825461019a9190610439565b925050819055503373ffffffffffffffffffffffffffffffffffffffff167fb182275171042022ff972a26edbd0171bccc74463bd22e56dbbeba4e93b7a6685f546040516101e891906102f0565b60405180910390a2565b60015f9054906101000a900473ffffffffffffffffffffffffffffffffffffffff1673ffffffffffffffffffffffffffffffffffffffff163373ffffffffffffffffffffffffffffffffffffffff1614610281576040517f08c379a0000000000000000000000000000000000000000000000000000000008152600401610278906104b6565b60405180910390fd5b5f5f819055503373ffffffffffffffffffffffffffffffffffffffff167f154fa90f2d3692df165afacdcd7755b2e9d98a892a80cc1dda63f3a9cc1e64a45f546040516102ce91906102f0565b60405180910390a2565b5f819050919050565b6102ea816102d8565b82525050565b5f6020820190506103035f8301846102e1565b92915050565b5f73ffffffffffffffffffffffffffffffffffffffff82169050919050565b5f61033282610309565b9050919050565b61034281610328565b82525050565b5f60208201905061035b5f830184610339565b92915050565b5f82825260208201905092915050565b7f436f756e7465722063616e6e6f7420676f2062656c6f77207a65726f000000005f82015250565b5f6103a5601c83610361565b91506103b082610371565b602082019050919050565b5f6020820190508181035f8301526103d281610399565b9050919050565b7f4e487b71000000000000000000000000000000000000000000000000000000005f52601160045260245ffd5b5f610410826102d8565b915061041b836102d8565b9250828203905081811115610433576104326103d9565b5b92915050565b5f610443826102d8565b915061044e836102d8565b9250828201905080821115610466576104656103d9565b5b92915050565b7f4f6e6c79206f776e65722063616e2072657365740000000000000000000000005f82015250565b5f6104a0601483610361565b91506104ab8261046c565b602082019050919050565b5f6020820190508181035f8301526104cd81610494565b905091905056fea2646970667358221220e9c9e98ff79d0efceae4b3b1534cb0625e22a61a6f1232c7470dab5683ab8f4764736f6c634300081e0033",
					"opcodes": "PUSH1 0x80 PUSH1 0x40 MSTORE CALLVALUE DUP1 ISZERO PUSH1 0xE JUMPI PUSH0 PUSH0 REVERT JUMPDEST POP CALLER PUSH1 0x1 PUSH0 PUSH2 0x100 EXP DUP2 SLOAD DUP2 PUSH20 0xFFFFFFFFFFFFFFFFFFFFFFFFFFFFFFFFFFFFFFFF MUL NOT AND SWAP1 DUP4 PUSH20 0xFFFFFFFFFFFFFFFFFFFFFFFFFFFFFFFFFFFFFFFF AND MUL OR SWAP1 SSTORE POP PUSH0 PUSH0 DUP2 SWAP1 SSTORE POP PUSH2 0x50A DUP1 PUSH2 0x62 PUSH0 CODECOPY PUSH0 RETURN INVALID PUSH1 0x80 PUSH1 0x40 MSTORE CALLVALUE DUP1 ISZERO PUSH2 0xF JUMPI PUSH0 PUSH0 REVERT JUMPDEST POP PUSH1 0x4 CALLDATASIZE LT PUSH2 0x55 JUMPI PUSH0 CALLDATALOAD PUSH1 0xE0 SHR DUP1 PUSH4 0x6661ABD EQ PUSH2 0x59 JUMPI DUP1 PUSH4 0x2BAECEB7 EQ PUSH2 0x77 JUMPI DUP1 PUSH4 0x8DA5CB5B EQ PUSH2 0x81 JUMPI DUP1 PUSH4 0xD09DE08A EQ PUSH2 0x9F JUMPI DUP1 PUSH4 0xD826F88F EQ PUSH2 0xA9 JUMPI JUMPDEST PUSH0 PUSH0 REVERT JUMPDEST PUSH2 0x61 PUSH2 0xB3 JUMP JUMPDEST PUSH1 0x40 MLOAD PUSH2 0x6E SWAP2 SWAP1 PUSH2 0x2F0 JUMP JUMPDEST PUSH1 0x40 MLOAD DUP1 SWAP2 SUB SWAP1 RETURN JUMPDEST PUSH2 0x7F PUSH2 0xB8 JUMP JUMPDEST STOP JUMPDEST PUSH2 0x89 PUSH2 0x164 JUMP JUMPDEST PUSH1 0x40 MLOAD PUSH2 0x96 SWAP2 SWAP1 PUSH2 0x348 JUMP JUMPDEST PUSH1 0x40 MLOAD DUP1 SWAP2 SUB SWAP1 RETURN JUMPDEST PUSH2 0xA7 PUSH2 0x189 JUMP JUMPDEST STOP JUMPDEST PUSH2 0xB1 PUSH2 0x1F2 JUMP JUMPDEST STOP JUMPDEST PUSH0 SLOAD DUP2 JUMP JUMPDEST PUSH0 PUSH0 SLOAD GT PUSH2 0xFB JUMPI PUSH1 0x40 MLOAD PUSH32 0x8C379A000000000000000000000000000000000000000000000000000000000 DUP2 MSTORE PUSH1 0x4 ADD PUSH2 0xF2 SWAP1 PUSH2 0x3BB JUMP JUMPDEST PUSH1 0x40 MLOAD DUP1 SWAP2 SUB SWAP1 REVERT JUMPDEST PUSH1 0x1 PUSH0 PUSH0 DUP3 DUP3 SLOAD PUSH2 0x10C SWAP2 SWAP1 PUSH2 0x406 JUMP JUMPDEST SWAP3 POP POP DUP2 SWAP1 SSTORE POP CALLER PUSH20 0xFFFFFFFFFFFFFFFFFFFFFFFFFFFFFFFFFFFFFFFF AND PUSH32 0x6B7E3C491CF1853ED43C9CC473D0DBFA8A17D1C836321655F35B48CF00FAEE03 PUSH0 SLOAD PUSH1 0x40 MLOAD PUSH2 0x15A SWAP2 SWAP1 PUSH2 0x2F0 JUMP JUMPDEST PUSH1 0x40 MLOAD DUP1 SWAP2 SUB SWAP1 LOG2 JUMP JUMPDEST PUSH1 0x1 PUSH0 SWAP1 SLOAD SWAP1 PUSH2 0x100 EXP SWAP1 DIV PUSH20 0xFFFFFFFFFFFFFFFFFFFFFFFFFFFFFFFFFFFFFFFF AND DUP2 JUMP JUMPDEST PUSH1 0x1 PUSH0 PUSH0 DUP3 DUP3 SLOAD PUSH2 0x19A SWAP2 SWAP1 PUSH2 0x439 JUMP JUMPDEST SWAP3 POP POP DUP2 SWAP1 SSTORE POP CALLER PUSH20 0xFFFFFFFFFFFFFFFFFFFFFFFFFFFFFFFFFFFFFFFF AND PUSH32 0xB182275171042022FF972A26EDBD0171BCCC74463BD22E56DBBEBA4E93B7A668 PUSH0 SLOAD PUSH1 0x40 MLOAD PUSH2 0x1E8 SWAP2 SWAP1 PUSH2 0x2F0 JUMP JUMPDEST PUSH1 0x40 MLOAD DUP1 SWAP2 SUB SWAP1 LOG2 JUMP JUMPDEST PUSH1 0x1 PUSH0 SWAP1 SLOAD SWAP1 PUSH2 0x100 EXP SWAP1 DIV PUSH20 0xFFFFFFFFFFFFFFFFFFFFFFFFFFFFFFFFFFFFFFFF AND PUSH20 0xFFFFFFFFFFFFFFFFFFFFFFFFFFFFFFFFFFFFFFFF AND CALLER PUSH20 0xFFFFFFFFFFFFFFFFFFFFFFFFFFFFFFFFFFFFFFFF AND EQ PUSH2 0x281 JUMPI PUSH1 0x40 MLOAD PUSH32 0x8C379A000000000000000000000000000000000000000000000000000000000 DUP2 MSTORE PUSH1 0x4 ADD PUSH2 0x278 SWAP1 PUSH2 0x4B6 JUMP JUMPDEST PUSH1 0x40 MLOAD DUP1 SWAP2 SUB SWAP1 REVERT JUMPDEST PUSH0 PUSH0 DUP2 SWAP1 SSTORE POP CALLER PUSH20 0xFFFFFFFFFFFFFFFFFFFFFFFFFFFFFFFFFFFFFFFF AND PUSH32 0x154FA90F2D3692DF165AFACDCD7755B2E9D98A892A80CC1DDA63F3A9CC1E64A4 PUSH0 SLOAD PUSH1 0x40 MLOAD PUSH2 0x2CE SWAP2 SWAP1 PUSH2 0x2F0 JUMP JUMPDEST PUSH1 0x40 MLOAD DUP1 SWAP2 SUB SWAP1 LOG2 JUMP JUMPDEST PUSH0 DUP2 SWAP1 POP SWAP2 SWAP1 POP JUMP JUMPDEST PUSH2 0x2EA DUP2 PUSH2 0x2D8 JUMP JUMPDEST DUP3 MSTORE POP POP JUMP JUMPDEST PUSH0 PUSH1 0x20 DUP3 ADD SWAP1 POP PUSH2 0x303 PUSH0 DUP4 ADD DUP5 PUSH2 0x2E1 JUMP JUMPDEST SWAP3 SWAP2 POP POP JUMP JUMPDEST PUSH0 PUSH20 0xFFFFFFFFFFFFFFFFFFFFFFFFFFFFFFFFFFFFFFFF DUP3 AND SWAP1 POP SWAP2 SWAP1 POP JUMP JUMPDEST PUSH0 PUSH2 0x332 DUP3 PUSH2 0x309 JUMP JUMPDEST SWAP1 POP SWAP2 SWAP1 POP JUMP JUMPDEST PUSH2 0x342 DUP2 PUSH2 0x328 JUMP JUMPDEST DUP3 MSTORE POP POP JUMP JUMPDEST PUSH0 PUSH1 0x20 DUP3 ADD SWAP1 POP PUSH2 0x35B PUSH0 DUP4 ADD DUP5 PUSH2 0x339 JUMP JUMPDEST SWAP3 SWAP2 POP POP JUMP JUMPDEST PUSH0 DUP3 DUP3 MSTORE PUSH1 0x20 DUP3 ADD SWAP1 POP SWAP3 SWAP2 POP POP JUMP JUMPDEST PUSH32 0x436F756E7465722063616E6E6F7420676F2062656C6F77207A65726F00000000 PUSH0 DUP3 ADD MSTORE POP JUMP JUMPDEST PUSH0 PUSH2 0x3A5 PUSH1 0x1C DUP4 PUSH2 0x361 JUMP JUMPDEST SWAP2 POP PUSH2 0x3B0 DUP3 PUSH2 0x371 JUMP JUMPDEST PUSH1 0x20 DUP3 ADD SWAP1 POP SWAP2 SWAP1 POP JUMP JUMPDEST PUSH0 PUSH1 0x20 DUP3 ADD SWAP1 POP DUP2 DUP2 SUB PUSH0 DUP4 ADD MSTORE PUSH2 0x3D2 DUP2 PUSH2 0x399 JUMP JUMPDEST SWAP1 POP SWAP2 SWAP1 POP JUMP JUMPDEST PUSH32 0x4E487B7100000000000000000000000000000000000000000000000000000000 PUSH0 MSTORE PUSH1 0x11 PUSH1 0x4 MSTORE PUSH1 0x24 PUSH0 REVERT JUMPDEST PUSH0 PUSH2 0x410 DUP3 PUSH2 0x2D8 JUMP JUMPDEST SWAP2 POP PUSH2 0x41B DUP4 PUSH2 0x2D8 JUMP JUMPDEST SWAP3 POP DUP3 DUP3 SUB SWAP1 POP DUP2 DUP2 GT ISZERO PUSH2 0x433 JUMPI PUSH2 0x432 PUSH2 0x3D9 JUMP JUMPDEST JUMPDEST SWAP3 SWAP2 POP POP JUMP JUMPDEST PUSH0 PUSH2 0x443 DUP3 PUSH2 0x2D8 JUMP JUMPDEST SWAP2 POP PUSH2 0x44E DUP4 PUSH2 0x2D8 JUMP JUMPDEST SWAP3 POP DUP3 DUP3 ADD SWAP1 POP DUP1 DUP3 GT ISZERO PUSH2 0x466 JUMPI PUSH2 0x465 PUSH2 0x3D9 JUMP JUMPDEST JUMPDEST SWAP3 SWAP2 POP POP JUMP JUMPDEST PUSH32 0x4F6E6C79206F776E65722063616E207265736574000000000000000000000000 PUSH0 DUP3 ADD MSTORE POP JUMP JUMPDEST PUSH0 PUSH2 0x4A0 PUSH1 0x14 DUP4 PUSH2 0x361 JUMP JUMPDEST SWAP2 POP PUSH2 0x4AB DUP3 PUSH2 0x46C JUMP JUMPDEST PUSH1 0x20 DUP3 ADD SWAP1 POP SWAP2 SWAP1 POP JUMP JUMPDEST PUSH0 PUSH1 0x20 DUP3 ADD SWAP1 POP DUP2 DUP2 SUB PUSH0 DUP4 ADD MSTORE PUSH2 0x4CD DUP2 PUSH2 0x494 JUMP JUMPDEST SWAP1 POP SWAP2 SWAP1 POP JUMP INVALID LOG2 PUSH5 0x6970667358 0x22 SLT KECCAK256 0xE9 0xC9 0xE9 DUP16 0xF7 SWAP14 0xE 0xFC 0xEA RETF 0xB3 0xB1 MSTORE8 0x4C 0xB0 PUSH3 0x5E22A6 BYTE PUSH16 0x1232C7470DAB5683AB8F4764736F6C63 NUMBER STOP ADDMOD 0x1E STOP CALLER "
				},
				"gasEstimates": {
					"creation": {
						"codeDepositCost": "258000",
						"executionCost": "29575",
						"totalCost": "287575"
					},
					"external": {
						"count()": "2402",
						"decrement()": "infinite",
						"increment()": "infinite",
						"owner()": "2530",
						"reset()": "11060"
					}
				},
				"methodIdentifiers": {
					"count()": "06661abd",
					"decrement()": "2baeceb7",
					"increment()": "d09de08a",
					"owner()": "8da5cb5b",
					"reset()": "d826f88f"
				}
			},
			"storageLayout": {
				"storage": [
					{
						"astId": 3,
						"contract": "Blockchain/event.sol:EventCounter",
						"label": "count",
						"offset": 0,
						"slot": "0",
						"type": "t_uint256"
					},
					{
						"astId": 5,
						"contract": "Blockchain/event.sol:EventCounter",
						"label": "owner",
						"offset": 0,
						"slot": "1",
						"type": "t_address"
					}
				],
				"types": {
					"t_address": {
						"encoding": "inplace",
						"label": "address",
						"numberOfBytes": "20"
					},
					"t_uint256": {
						"encoding": "inplace",
						"label": "uint256",
						"numberOfBytes": "32"
					}
				}
			},
			"userdoc": {
				"kind": "user",
				"methods": {
					"decrement()": {
						"notice": "Decrement counter"
					},
					"increment()": {
						"notice": "Increment counter"
					},
					"reset()": {
						"notice": "Reset counter (only owner)"
					}
				},
				"version": 1
			}
		}
	}
}